:03000000020006F5
:06005F0075080002000319
:0300030002039C59
:200065007E2B7F000000000000000000000000000000000000000000000000000000000053
:2000850000000000000000000000000000000000000000000000000000000000000000005B
:2000A50000000000000000000000000000000000000000000000000000000000000000003B
:2000C50000000000000000000000000000000000000000000000001EBEFF011FEE4F7084EF
:2000E50022AFB2AEB174FB5FF5B28E0774FB5FFE74044EF5B1AFB2AEB174FD5FF5B28E070B
:2001050074FD5FFE74024EF5B1AFB2AEB174FE5FF5B28E0774FE5FFE74014EF5B1AFB2AE8E
:20012500B18F0574F75DFF74084FF5B274F75EF5B1AFB2AEB18F0574EF5DFF74104FF5B240
:2001450074EF5EF5B1AFB2AEB18F0574DF5DFF74204FF5B274DF5EF5B1C2B30000000000DA
:20016500C2B40000000000C2B4000000000075820012017D12006522AF827E008E047D00B0
:200185007407C39CFCE49DFD8CF005F0EF8002C313D5F0FB30E00DD2B300000000000000EC
:2001A50000008007C2B30000000000D2B4000000000000000000C2B400000000000EBE086E
:2001C5000040B9C2B30000000000D2B5000000000000000000C2B5000000000022AF087461
:2001E500FB5FF50885088212017D000000000043080485088212017D0000000000AF0874EB
:20020500FB5FF50885088212017D000000000022E582FF30E0054308088007AE0874F75EED
:20022500F508EF30E1054308108007AE0874EF5EF508EF30E2054308208007AE0874DF5E02
:20024500F508EF30E3054308408007AF0874BF5FF50885088212017D1201E222AF82E50968
:200265006009AE0874FD5EF5088003430802EFC4540FFE740F5EF582C007120215D0077417
:200285000F5FF582120215227509017582011202617E057F00C007C006120065D006D0078A
:2002A5001EBEFF011FEE4F70EC22AF8274FC250A5003750A03E50A9003E6932F4480F58279
:2002C50075090112026122E5825407C40354F8FF74404FF5827509011202617F00EF250B23
:2002E500FCE4350CFDAE0D8C828D838EF01203C6FC7509008C82C007120261D0070FBF0838
:200305000040DA227E327F00C007C006120065D006D0071EBEFF011FEE4F70ECF508F582B4
:2003250012017D7582021202157E057F00C007C006120065D006D0071EBEFF011FEE4F70AB
:20034500EC75090175822812026175090175822812026175090175820C12026112028D7579
:20036500090175820612026122AD82AE83AFF08D828E838FF01203C6FC601B7509008C825E
:20038500C007C006C005120261D005D006D0070DBD00DC0E80D9221200E6120309120309AC
:2003A500120309750A007582001202AF75090075824112026120B2FD30B0FA12028D80F5F7
:0103C5002215
:2003E600004010501F1F0000000000000000001F1F0000000000000000001F1F1F1F001F40
:140406001F0000000000001F1F001F1F1F1F001F1F001F1F8D
:06003500E4787FF6D8FD1F
:200013007900E94400601B7A0090041A780075A000E493F2A308B8000205A0D9F4DAF27576
:02003300A0FF2C
:20003B007800E84400600A790075A000E4F309D8FC7800E84400600C7900900000E4F0A3C5
:04005B00D8FCD9FAFA
:0D00060075810D1203E2E582600302000324
:1C03C60020F71430F6148883A88220F507E6A88375830022E280F7E49322E02246
:0403E20075820022FE
:00000001FF
